:100000000C9463000C948B000C948B000C948B006C
:100010000C948B000C948B000C948B000C948B0034
:100020000C948B000C948B000C948B000C948B0024
:100030000C948B000C948B000C948B000C948B0014
:100040000C94C7020C948B000C94FA030C948B0054
:100050000C948B000C948B000C948B000C948B00F4
:100060000C948B000C948B000000000024002700EF
:100070002A0000000000250028002B0000000000DE
:1000800023002600290004040404040404040202DA
:100090000202020203030303030301020408102007
:1000A0004080010204081020010204081020000012
:1000B0000007000201000003040600000000000029
:1000C000000060027F0511241FBECFEFD4E0DEBF29
:1000D000CDBF11E0A0E0B1E0E6E2FDE002C0059096
:1000E0000D92AC32B107D9F712E0ACE2B1E001C039
:1000F0001D92AE3AB107E1F710E0C6ECD0E004C0C3
:100100002297FE010E948D06C23CD107C9F70E94CA
:10011000AD020C9491060C940000FC0188279927ED
:10012000E89421912032E9F3293010F02E30C8F301
:100130002B3241F02D3239F4689404C00E94AB0098
:10014000820F911D219120532A30C0F31EF4909507
:1001500081959F4F08957AE0979F902D879F802DDE
:10016000910D11240895FC01E95BFF4F81E080832C
:10017000E754F040DF01A252BF4F11967C936E937B
:10018000E052FF4F89E190E091838083EC59F04089
:100190008DE080838BE1829332968BE3819380E4C0
:1001A000808335971182108237968D919C9111979B
:1001B00081939193EA17FB07C1F70895E42FF0E0CC
:1001C0003C97EE0FFF1FE80FF91F718360830895BE
:1001D000EF92FF920F931F93DF93CF93CDB7DEB7CC
:1001E000DC01EDB6FEB68C912DB73EB7281B310968
:1001F0000FB6F8943EBF0FBE2DBF6DB77EB76F5FD1
:100200007F4F8B0141E050E007C0FD01E40FF51F77
:100210008081F80181938F019A018C91E82FF0E0A1
:100220004F5F5F4F2E173F0784F3E60FF71F31979D
:100230001082CB010E948D000FB6F894FEBE0FBE57
:10024000EDBECF91DF911F910F91FF90EF90089538
:10025000CF92DF92FF920F931F93CF93DF93EC0126
:10026000F980EF2DF0E0CA5BDF4F6881C654D040C3
:10027000862F992787FD9095E817F90719F48BE9E0
:1002800092E048C0EB37F1050CF047C03C97EE0F09
:10029000FF1FEC0FFD1F008111818881813019F44F
:1002A00060E070E02FC0FE01EF5BFF4F81E090E067
:1002B00091838083DE0141E050E0BE016B5B7F4FA4
:1002C0006F0115C012962C91129730E0FB018081CE
:1002D000992787FD90952817390731F4F601808119
:1002E00091810196918380834F5F5F4F1196888142
:1002F00090E04817590734F3CF5BDF4F688179816D
:10030000C154D0408F2DF8010995CA5BDF4F8BE9AE
:1003100092E068810E94F8054FC0C95BDF4F888179
:10032000C754D0408823E9F1C252DF4F08811981B8
:10033000CE5DD0408881813019F460E070E02DC03E
:10034000FE01EF5BFF4F81E090E091838083DE014F
:1003500041E050E0BE016B5B7F4F6F0115C012960C
:100360002C91129730E0FB018081992787FD9095B1
:100370002817390731F4F601808191810196918324
:1003800080834F5F5F4F1196888190E0481759072F
:1003900034F3CF5BDF4F688179818F2DF8010995A8
:1003A0000BC08BE992E060E071E00E9400068BE9EF
:1003B00092E069810E94F005DF91CF911F910F912A
:1003C000FF90DF90CF900895AF92BF92CF92DF92CF
:1003D000EF92FF920F931F93CF93DF93EC0103E40F
:1003E000A02EB12CA80EB91E14E4C12ED12CC80E1B
:1003F000D91E8C010F5B1F4FB0EEEB2EF12CE80ED7
:10040000F91E37C08BE992E00E944405482F282F3F
:1004100030E0F5018081992787FD909528173907ED
:1004200041F4FE0180E011828F5F31968034D9F76C
:1004300012C0F6018081992787FD9095281739070A
:1004400079F4CE010E942801FE0180E011828F5FC5
:1004500031968034D9F71882F8011182108209C0D0
:100460008881803408F5FE01E80FF11D41838F5F1C
:1004700088838BE992E00E943005882319F68BE986
:1004800092E00E9430058823A1F7F70180819181D5
:10049000009711F00E9445038BE992E00E9430051D
:1004A000882339F781E001C080E0DF91CF911F916F
:1004B0000F91FF90EF90DF90CF90BF90AF90089595
:1004C0008CE291E064EB72E00E94B3000895EF9239
:1004D000FF920F931F937C018091200160E00E94A6
:1004E000AD030027F7FC0095102FC801B7010E944B
:1004F0001B038091200161E00E94AD03C801B70198
:100500000E941B031F910F91FF90EF9008958CE2C2
:1005100091E00E94E8000E94670208958CE291E059
:100520000E94E40108958BE992E040E051EE60E022
:1005300070E00E9437048CE291E067E872E046E4E4
:100540000E94DE008091200161E00E948D03809175
:10055000200161E00E94AD0308950E9453030E94B0
:1005600093020E948E02FDCFFF920F931F93F82EED
:100570000BE912E0C80168E171E00E940006C801C1
:100580006F2D0E94F0051F910F91FF9008951F920B
:100590000F920FB60F9211242F933F934F935F93B7
:1005A0006F937F938F939F93AF93BF93209112028A
:1005B000309113024091140250911502709116026D
:1005C000DA01C9010296A11DB11D672F6A5F6D375F
:1005D00030F06D57DA01C9010396A11DB11D60937A
:1005E00016028093120290931302A0931402B09308
:1005F000150280910E0290910F02A0911002B0910D
:1006000011020196A11DB11D80930E0290930F025D
:10061000A0931002B0931102BF91AF919F918F915F
:100620007F916F915F914F913F912F910F900FBEEE
:100630000F901F901895EF92FF920F931F937B01DD
:100640008C018FB7F894409112025091130260917F
:100650001402709115028FBF2FB7F8948091120287
:1006600090911302A0911402B09115022FBF841B28
:10067000950BA60BB70BE816F9060A071B0760F7E0
:100680001F910F91FF90EF900895019759F00197F6
:1006900049F0FC01EE0FFF1F31978FB7F8943197A7
:1006A000F1F78FBF0895789484B5826084BD84B5D6
:1006B000816084BD85B5826085BD85B5816085BD5D
:1006C000EEE6F0E0808181608083E1E8F0E0808107
:1006D00082608083808181608083E0E8F0E08081B7
:1006E00081608083E1EBF0E0808184608083E0EBD7
:1006F000F0E0808181608083EAE7F0E080818460BF
:10070000808380818260808380818160808380811A
:10071000806880831092C1000895282F30E0C901BD
:1007200086569F4FFC0194912A573F4FF9018491BF
:10073000882391F0E82FF0E0EE0FFF1FE859FF4FFC
:10074000A591B491662329F48C91909589238C937B
:1007500008958C91892B8C930895482F50E0CA01FD
:1007600082559F4FFC012491CA0186569F4FFC0180
:1007700094914A575F4FFA0134913323D1F12223E8
:1007800031F1233021F4809180008F7705C024302F
:1007900031F4809180008F7D8093800018C02130DB
:1007A00019F484B58F7704C0223021F484B58F7D8D
:1007B00084BD0DC0263021F48091B0008F7705C034
:1007C000273029F48091B0008F7D8093B000E32F13
:1007D000F0E0EE0FFF1FEE58FF4FA591B491662396
:1007E00029F48C91909589238C9308958C91892B71
:1007F0008C9308951F920F920FB60F9211242F938E
:100800003F934F935F936F937F938F939F93AF9398
:10081000BF93EF93FF934091C600E0919702F09150
:100820009802CF01019660E870E00E9427069C01C3
:100830008091990290919A022817390739F0E95E60
:10084000FD4F40833093980220939702FF91EF91E0
:10085000BF91AF919F918F917F916F915F914F91D8
:100860003F912F910F900FBE0F901F9018955F92A0
:100870006F927F928F929F92AF92BF92CF92DF92B0
:10088000EF92FF920F931F93CF93DF93EC013A0106
:100890004B01413281EA580787E0680780E078071A
:1008A0000CF07FC060E472E48FE090E0A40193015B
:1008B0000E945C062150304040405040CA01B901BE
:1008C00022E030E040E050E00E945C0659016A01FD
:1008D000A6019501209530954095509594E0220F02
:1008E000331F441F551F9A95D1F760E072E18AE7E4
:1008F00090E00E945C06CA01B9012FEF30E040E0B1
:1009000050E00E940806A40193010E945C06C90100
:1009100081509F4F181619061CF4522E5A9403C08A
:1009200055245394521A60E874E88EE190E0A401D3
:1009300093010E945C062150304040405040CA0163
:10094000B90122E030E040E050E00E945C062095D2
:1009500030954095509583E0220F331F441F551F5B
:100960008A95D1F760E072E18AE790E00E945C0628
:10097000CA01B9012FEF30E040E050E00E940806C4
:10098000A40193010E945C06C90181509F4F181673
:1009900019061CF4822F815002C081E0821B85154C
:1009A00000F5E885F98581E090E00A8802C0880FAB
:1009B000991F0A94E2F7808360E874E88EE190E082
:1009C000A40193010E945C062150304040405040F9
:1009D000CA01B90122E030E040E050E00E945C062C
:1009E00004C0E885F98510829501EC81FD81308392
:1009F000EE81FF812083EA85FB85208141E050E084
:100A0000CA010E8402C0880F991F0A94E2F7282BAE
:100A10002083EA85FB852081CA010F8402C0880FEC
:100A2000991F0A94E2F7282B2083EA85FB858081B1
:100A3000088802C0440F551F0A94E2F7842B808374
:100A4000DF91CF911F910F91FF90EF90DF90CF90AA
:100A5000BF90AF909F908F907F906F905F90089520
:100A6000DC011296ED91FC911397E058FF4F8191B4
:100A7000919180589F4F20813181821B930B60E8B8
:100A800070E00E9427060895CF93DF93DC01129651
:100A9000ED91FC911397EF01CE57DF4F48815981BB
:100AA000E058FF4F80819181E058F040841795070E
:100AB00019F42FEF3FEF0CC0E40FF51F2081CA019E
:100AC000019660E870E00E9427069983888330E0F1
:100AD000C901DF91CF910895FC01A085B1852189DD
:100AE0008C9190E0022E02C0959587950A94E2F7CA
:100AF00080FFF6CF0484F585E02D6083089586E2BB
:100B000091E090939C0280939B0287E192E0909306
:100B10009E0280939D0285EC90E09093A0028093CA
:100B20009F0284EC90E09093A2028093A10280EC5B
:100B300090E09093A4028093A30281EC90E09093C4
:100B4000A6028093A50286EC90E09093A802809381
:100B5000A70284E08093A90283E08093AA0287E041
:100B60008093AB0285E08093AC0281E08093AD027C
:100B700008950F931F93CF93DF938C01EB0109C06E
:100B80002196D801ED91FC910190F081E02DC801F2
:100B9000099568816623A1F7DF91CF911F910F918D
:100BA0000895EF92FF920F931F93CF93DF938C01E1
:100BB0007B01EA010CC0D7016D917D01D801ED9157
:100BC000FC910190F081E02DC801099521972097B3
:100BD00091F7DF91CF911F910F91FF90EF900895C2
:100BE000DC01ED91FC910190F081E02D09950895D3
:100BF000DC01ED91FC910190F081E02D09950895C3
:100C0000DC01ED91FC910280F381E02D09950895BE
:100C1000629FD001739FF001829FE00DF11D649FE0
:100C2000E00DF11D929FF00D839FF00D749FF00D6C
:100C3000659FF00D9927729FB00DE11DF91F639F0D
:100C4000B00DE11DF91FBD01CF011124089597FBDF
:100C5000092E07260AD077FD04D049D006D00020FF
:100C60001AF4709561957F4F0895F6F790958195E8
:100C70009F4F0895A1E21A2EAA1BBB1BFD010DC0B8
:100C8000AA1FBB1FEE1FFF1FA217B307E407F5073C
:100C900020F0A21BB30BE40BF50B661F771F881F18
:100CA000991F1A9469F760957095809590959B01AE
:100CB000AC01BD01CF01089597FB092E05260ED08A
:100CC00057FD04D0D7DF0AD0001C38F4509540956A
:100CD000309521953F4F4F4F5F4F0895F6F7909510
:100CE0008095709561957F4F8F4F9F4F0895AA1BF8
:100CF000BB1B51E107C0AA1FBB1FA617B70710F007
:100D0000A61BB70B881F991F5A95A9F78095909538
:100D1000BC01CD010895EE0FFF1F0590F491E02D69
:060D20000994F894FFCFD6
:100D26004E6F2066756E632E20617474616368650C
:100D36006420666F723A20004552524F523A2000A4
:0C0D46000D00000000006C05B905D1058F
:00000001FF
