:100000000C9463000C948B000C948B000C948B006C
:100010000C948B000C948B000C948B000C948B0034
:100020000C948B000C948B000C948B000C948B0024
:100030000C948B000C948B000C948B000C948B0014
:100040000C9487020C948B000C94BA030C948B00D4
:100050000C948B000C948B000C948B000C948B00F4
:100060000C948B000C948B000000000024002700EF
:100070002A0000000000250028002B0000000000DE
:1000800023002600290004040404040404040202DA
:100090000202020203030303030301020408102007
:1000A0004080010204081020010204081020000012
:1000B0000007000201000003040600000000000029
:1000C00000000F023F0511241FBECFEFD4E0DEBFBA
:1000D000CDBF11E0A0E0B1E0E6EAFCE002C005908F
:1000E0000D92A432B107D9F712E0A4E2B1E001C049
:1000F0001D92A63AB107E1F710E0C6ECD0E004C0CB
:100100002297FE010E944D06C23CD107C9F70E940A
:1001100080020C9451060C940000FC01E95BFF4F37
:100120001082E756FF4F89E190E091838083EC597C
:10013000F0408DE080838BE1829332968BE3819354
:1001400080E48083359711821082E154F040DF0112
:10015000A85BBF4FE252FF4F808191818D939D93A9
:10016000AE17BF07C9F70895E42FF0E03C97EE0FF4
:10017000FF1FE80FF91F718360830895CF93DF930A
:10018000EC01DC0120E030E007C0FB01E20FF31FCF
:100190008C9180832F5F3F4F1196888190E02817C4
:1001A00039079CF3DF91CF910895CF92DF92FF92B0
:1001B0000F931F93CF93DF93EC01F980EF2DF0E0C5
:1001C000CA5BDF4F6881C654D040862F992787FDD0
:1001D0009095E817F90719F483E992E048C0EB37E6
:1001E000F1050CF047C03C97EE0FFF1FEC0FFD1F11
:1001F000008111818881813019F460E070E02FC0A6
:10020000FE01EF5BFF4F81E090E091838083DE0190
:1002100041E050E0BE016B5B7F4F6F0115C012964D
:100220002C91129730E0FB018081992787FD9095F2
:100230002817390731F4F601808191810196918365
:1002400080834F5F5F4F1196888190E04817590770
:1002500034F3CF5BDF4F68817981C154D0408F2D5B
:10026000F8010995CA5BDF4F83E992E068810E943B
:10027000B8054FC0C95BDF4F8881C754D040882381
:10028000E9F1C252DF4F08811981CE5DD0408881EB
:10029000813019F460E070E02DC0FE01EF5BFF4F8C
:1002A00081E090E091838083DE0141E050E0BE0177
:1002B0006B5B7F4F6F0115C012962C91129730E047
:1002C000FB018081992787FD90952817390731F424
:1002D000F601808191810196918380834F5F5F4F0A
:1002E0001196888190E04817590734F3CF5BDF4FB0
:1002F000688179818F2DF80109950BC083E992E01F
:1003000060E071E00E94C00583E992E069810E948B
:10031000B005DF91CF911F910F91FF90DF90CF90AB
:100320000895AF92BF92CF92DF92EF92FF920F9318
:100330001F93CF93DF93EC0103E4A02EB12CA80E02
:10034000B91E14E4C12ED12CC80ED91E8C010F5B2E
:100350001F4FB0EEEB2EF12CE80EF91E37C083E9EB
:1003600092E00E940405482F282F30E0F50180819B
:10037000992787FD90952817390741F4FE0180E001
:1003800011828F5F31968034D9F712C0F6018081D7
:10039000992787FD90952817390779F4CE010E9497
:1003A000D500FE0180E011828F5F31968034D9F74D
:1003B0001882F8011182108209C08881803408F502
:1003C000FE01E80FF11D41838F5F888383E992E08E
:1003D0000E94F004882319F683E992E00E94F00459
:1003E0008823A1F7F70180819181009711F00E9485
:1003F000050383E992E00E94F004882339F781E045
:1004000001C080E0DF91CF911F910F91FF90EF909D
:10041000DF90CF90BF90AF9008950895089584E243
:1004200091E00E948D0008950F931F93DF93CF9367
:10043000CDB7DEB70DB71EB7809124012DB73EB7FB
:10044000281B31090FB6F8943EBF0FBE2DBF6DB704
:100450007EB76F5F7F4F84E291E00E94BE000FB6CF
:10046000F8941EBF0FBE0DBFCF91DF911F910F916A
:1004700008958091180160E00E946D0364EF71E0BF
:1004800080E090E00E94DB028091180161E00E9410
:100490006D03089584E291E00E94910108950F9305
:1004A0001F9383E992E040E051EE60E070E00E942B
:1004B000F70304E211E0C80169E372E042E40E943C
:1004C000B400C80164E172E043E40E94B400C801D2
:1004D0006DE072E044E40E94B400C8016EE072E096
:1004E00045E40E94B4008091180161E00E944D0330
:1004F0008091180161E00E946D031F910F91089592
:100500000E9413030E944F020E944A02FDCF1F92D5
:100510000F920FB60F9211242F933F934F935F9337
:100520006F937F938F939F93AF93BF9320910A0212
:1005300030910B0240910C0250910D0270910E020D
:10054000DA01C9010296A11DB11D672F6A5F6D37DF
:1005500030F06D57DA01C9010396A11DB11D6093FA
:100560000E0280930A0290930B02A0930C02B093A8
:100570000D028091060290910702A0910802B091AD
:1005800009020196A11DB11D8093060290930702F6
:10059000A0930802B0930902BF91AF919F918F91F0
:1005A0007F916F915F914F913F912F910F900FBE6F
:1005B0000F901F901895EF92FF920F931F937B015E
:1005C0008C018FB7F89440910A0250910B02609110
:1005D0000C0270910D028FBF2FB7F89480910A0220
:1005E00090910B02A0910C02B0910D022FBF841BC1
:1005F000950BA60BB70BE816F9060A071B0760F761
:100600001F910F91FF90EF900895019759F0019776
:1006100049F0FC01EE0FFF1F31978FB7F894319727
:10062000F1F78FBF0895789484B5826084BD84B556
:10063000816084BD85B5826085BD85B5816085BDDD
:10064000EEE6F0E0808181608083E1E8F0E0808187
:1006500082608083808181608083E0E8F0E0808137
:1006600081608083E1EBF0E0808184608083E0EB57
:10067000F0E0808181608083EAE7F0E0808184603F
:10068000808380818260808380818160808380819B
:10069000806880831092C1000895282F30E0C9013E
:1006A00086569F4FFC0194912A573F4FF901849140
:1006B000882391F0E82FF0E0EE0FFF1FE859FF4F7D
:1006C000A591B491662329F48C91909589238C93FC
:1006D00008958C91892B8C930895482F50E0CA017E
:1006E00082559F4FFC012491CA0186569F4FFC0101
:1006F00094914A575F4FFA0134913323D1F1222369
:1007000031F1233021F4809180008F7705C02430AF
:1007100031F4809180008F7D8093800018C021305B
:1007200019F484B58F7704C0223021F484B58F7D0D
:1007300084BD0DC0263021F48091B0008F7705C0B4
:10074000273029F48091B0008F7D8093B000E32F93
:10075000F0E0EE0FFF1FEE58FF4FA591B491662316
:1007600029F48C91909589238C9308958C91892BF1
:100770008C9308951F920F920FB60F9211242F930E
:100780003F934F935F936F937F938F939F93AF9319
:10079000BF93EF93FF934091C600E0918F02F091D9
:1007A0009002CF01019660E870E00E94E7059C018D
:1007B00080919102909192022817390739F0E15FF8
:1007C000FD4F40833093900220938F02FF91EF9171
:1007D000BF91AF919F918F917F916F915F914F9159
:1007E0003F912F910F900FBE0F901F9018955F9221
:1007F0006F927F928F929F92AF92BF92CF92DF9231
:10080000EF92FF920F931F93CF93DF93EC013A0186
:100810004B01413281EA580787E0680780E078079A
:100820000CF07FC060E472E48FE090E0A4019301DB
:100830000E941C062150304040405040CA01B9017E
:1008400022E030E040E050E00E941C0659016A01BD
:10085000A6019501209530954095509594E0220F82
:10086000331F441F551F9A95D1F760E072E18AE764
:1008700090E00E941C06CA01B9012FEF30E040E071
:1008800050E00E94C805A40193010E941C06C90102
:1008900081509F4F181619061CF4522E5A9403C00B
:1008A00055245394521A60E874E88EE190E0A40154
:1008B00093010E941C062150304040405040CA0124
:1008C000B90122E030E040E050E00E941C06209593
:1008D00030954095509583E0220F331F441F551FDC
:1008E0008A95D1F760E072E18AE790E00E941C06E9
:1008F000CA01B9012FEF30E040E050E00E94C80586
:10090000A40193010E941C06C90181509F4F181633
:1009100019061CF4822F815002C081E0821B8515CC
:1009200000F5E885F98581E090E00A8802C0880F2B
:10093000991F0A94E2F7808360E874E88EE190E002
:10094000A40193010E941C062150304040405040B9
:10095000CA01B90122E030E040E050E00E941C06EC
:1009600004C0E885F98510829501EC81FD81308312
:10097000EE81FF812083EA85FB85208141E050E004
:10098000CA010E8402C0880F991F0A94E2F7282B2F
:100990002083EA85FB852081CA010F8402C0880F6D
:1009A000991F0A94E2F7282B2083EA85FB85808132
:1009B000088802C0440F551F0A94E2F7842B8083F5
:1009C000DF91CF911F910F91FF90EF90DF90CF902B
:1009D000BF90AF909F908F907F906F905F900895A1
:1009E000DC011296ED91FC911397E058FF4F819135
:1009F000919180589F4F20813181821B930B60E839
:100A000070E00E94E7050895CF93DF93DC01129612
:100A1000ED91FC911397EF01CE57DF4F488159813B
:100A2000E058FF4F80819181E058F040841795078E
:100A300019F42FEF3FEF0CC0E40FF51F2081CA011E
:100A4000019660E870E00E94E7059983888330E0B2
:100A5000C901DF91CF910895FC01A085B18521895D
:100A60008C9190E0022E02C0959587950A94E2F74A
:100A700080FFF6CF0484F585E02D608308958EE134
:100A800091E090939402809393028FE092E0909390
:100A900096028093950285EC90E090939802809363
:100AA000970284EC90E090939A028093990280ECF4
:100AB00090E090939C0280939B0281EC90E0909355
:100AC0009E0280939D0286EC90E09093A00280931A
:100AD0009F0284E08093A10283E08093A20287E0DA
:100AE0008093A30285E08093A40281E08093A50215
:100AF00008950F931F93CF93DF938C01EB0109C0EF
:100B00002196D801ED91FC910190F081E02DC80172
:100B1000099568816623A1F7DF91CF911F910F910D
:100B20000895EF92FF920F931F93CF93DF938C0161
:100B30007B01EA010CC0D7016D917D01D801ED91D7
:100B4000FC910190F081E02DC80109952197209733
:100B500091F7DF91CF911F910F91FF90EF90089542
:100B6000DC01ED91FC910190F081E02D0995089553
:100B7000DC01ED91FC910190F081E02D0995089543
:100B8000DC01ED91FC910280F381E02D099508953F
:100B9000629FD001739FF001829FE00DF11D649F61
:100BA000E00DF11D929FF00D839FF00D749FF00DED
:100BB000659FF00D9927729FB00DE11DF91F639F8E
:100BC000B00DE11DF91FBD01CF011124089597FB60
:100BD000092E07260AD077FD04D049D006D0002080
:100BE0001AF4709561957F4F0895F6F79095819569
:100BF0009F4F0895A1E21A2EAA1BBB1BFD010DC039
:100C0000AA1FBB1FEE1FFF1FA217B307E407F507BC
:100C100020F0A21BB30BE40BF50B661F771F881F98
:100C2000991F1A9469F760957095809590959B012E
:100C3000AC01BD01CF01089597FB092E05260ED00A
:100C400057FD04D0D7DF0AD0001C38F450954095EA
:100C5000309521953F4F4F4F5F4F0895F6F7909590
:100C60008095709561957F4F8F4F9F4F0895AA1B78
:100C7000BB1B51E107C0AA1FBB1FA617B70710F087
:100C8000A61BB70B881F991F5A95A9F780959095B9
:100C9000BC01CD010895EE0FFF1F0590F491E02DEA
:060CA0000994F894FFCF57
:100CA6004E6F2066756E632E20617474616368658D
:100CB6006420666F723A20000D00000000002C05CB
:040CC6007905910516
:00000001FF
