:100000000C9463000C948B000C948B000C948B006C
:100010000C948B000C948B000C948B000C948B0034
:100020000C948B000C948B000C948B000C948B0024
:100030000C948B000C948B000C948B000C948B0014
:100040000C94B8020C948B000C94FD030C948B0060
:100050000C948B000C948B000C948B000C948B00F4
:100060000C948B000C948B000000000024002700EF
:100070002A0000000000250028002B0000000000DE
:1000800023002600290004040404040404040202DA
:100090000202020203030303030301020408102007
:1000A0004080010204081020010204081020000012
:1000B0000007000201000003040600000000000029
:1000C00000004002820511241FBECFEFD4E0DEBF46
:1000D000CDBF11E0A0E0B1E0EAEBFEE002C0059088
:1000E0000D92A233B107D9F712E0A2E3B1E001C04B
:1000F0001D92A73BB107E1F710E0C6ECD0E004C0C9
:100100002297FE010E945707C23CD107C9F70E94FF
:10011000B1020C945B070C940000FC0181E291E0B9
:1001200091838083E65BFF4F1082E756FF4F8EE19D
:1001300090E091838083ED59F04083E180838BE1EF
:10014000829332968BE3819381E1819382E1808374
:10015000369711821082E354F040DF01A55BBF4F58
:10016000EF51FF4F808191818D939D93AE17BF0713
:10017000C9F70895E42FF0E0F097EE0FFF1FE80FA6
:10018000F91FE55BFF4F71836083089584EA92E075
:100190000E94F3050895EF92FF920F931F93CF9360
:1001A000DF938C017B01EA01FC01E75BFF4F84EAEE
:1001B00092E060810E94FB0508C0F70161917F0118
:1001C00084EA92E00E94F30521972097B1F70A5B39
:1001D0001F4F84EA92E0F80160810E94FB05DF91E5
:1001E000CF911F910F91FF90EF9008950F931F9360
:1001F000CF93DF938C01EB01FC01E75BFF4F84EAB7
:1002000092E0608103C0219684EA92E00E94FB059F
:1002100068816623C1F70A5B1F4F84EA92E0F80108
:1002200060810E94FB05DF91CF911F910F9108958E
:10023000CF92DF92FF920F931F93CF93DF93EC0146
:10024000FB80EF2DF0E0C85BDF4F6881C854D040E1
:10025000862F992787FD9095E817F90729F484EAF6
:1002600092E00E94FB0588C0EB37F105B4F5F097EA
:10027000EE0FFF1FEC0FFD1FE55BFF4F00811181AB
:100280008A818130D1F1FE01ED5BFF4F81E090E08A
:1002900091838083DE0141E050E0BE01695B7F4FC6
:1002A0006F0115C014962C91149730E0FB018081EA
:1002B000992787FD90952817390731F4F601808139
:1002C00091810196918380834F5F5F4F11968A8160
:1002D00090E04817590734F33CC0C65BDF4F888174
:1002E000CA54D0408823E9F1CF51DF4F08811981EA
:1002F000C15ED0408A81813019F460E070E02DC089
:10030000FE01ED5BFF4F81E090E091838083DE0191
:1003100041E050E0BE01695B7F4F6F0115C014964C
:100320002C91149730E0FB018081992787FD9095EF
:100330002817390731F4F601808191810196918364
:1003400080834F5F5F4F11968A8190E0481759076D
:1003500034F3CD5BDF4F688179818F2DF8010995EA
:100360000BC084EA92E060E071E00E94030684EA38
:1003700092E06B810E94F305DF91CF911F910F9165
:10038000FF90DF90CF900895AF92BF92CF92DF920F
:10039000EF92FF920F931F93CF93DF93EC0145E40D
:1003A000A42EB12CA80EB91E36E4C32ED12CC80E33
:1003B000D91E8C010D5B1F4F23EEE22EF12CE80EAF
:1003C000F91E37C084EA92E00E944705482F282F83
:1003D00030E0F5018081992787FD9095281739072E
:1003E00041F4FE0180E013828F5F31968034D9F7AB
:1003F00012C0F6018081992787FD9095281739074B
:1004000079F4CE010E941801FE0180E013828F5F13
:1004100031968034D9F71A82F8011182108209C00E
:100420008A81803408F5FE01E80FF11D43838F5F58
:100430008A8384EA92E00E943305882319F684EACD
:1004400092E00E9433058823A1F7F7018081918112
:10045000009711F00E942A0384EA92E00E9433057B
:10046000882339F781E001C080E0DF91CF911F91AF
:100470000F91FF90EF90DF90CF90BF90AF900895D5
:1004800082E391E00E948D000895EF92FF920F9316
:100490001F937C018091180160E00E94B003002747
:1004A000F7FC0095102FC801B7010E94000380914E
:1004B000180161E00E94B003C801B7010E94000367
:1004C0001F910F91FF90EF9008958CE291E00E94B0
:1004D00045028CE291E00E94450208950F931F931C
:1004E00002E311E0C8010E94C401C80160911A0131
:1004F0000E94FB0585E00E947203BC01C8010E94B6
:10050000CA06C80160911B010E94FB0564EF71E0FF
:1005100080E090E00E9400031F910F91089584EA0B
:1005200092E040E051EE60E070E00E943A0482E325
:1005300091E065E672E041E40E94BA008091180102
:1005400061E00E9490038091180161E00E94B00375
:1005500085E060E00E94900385E061E00E94B003C6
:1005600008950E9438030E948F020E946E02FDCF00
:100570001F920F920FB60F9211242F933F938F93D8
:100580009F93AF93BF9380911B0290911C02A09107
:100590001D02B0911E0230911F020196A11DB11DD6
:1005A000232F2D5F2D3720F02D570196A11DB11D52
:1005B00020931F0280931B0290931C02A0931D02A4
:1005C000B0931E028091170290911802A091190217
:1005D000B0911A020196A11DB11D8093170290934C
:1005E0001802A0931902B0931A02BF91AF919F9184
:1005F0008F913F912F910F900FBE0F901F901895E4
:10060000EF92FF920F931F937B018C018FB7F894A9
:1006100040911B0250911C0260911D0270911E02BC
:100620008FBF2FB7F89480911B0290911C02A0916C
:100630001D02B0911E022FBF841B950BA60BB70B9A
:10064000E816F9060A071B0760F71F910F91FF9044
:10065000EF900895019759F0FC01EE0FFF1FEE0F88
:10066000FF1F32978FB7F8943197F1F78FBF089536
:10067000789484B5826084BD84B5816084BD85B57D
:10068000826085BD85B5816085BDEEE6F0E0808144
:1006900081608083E1E8F0E08081826080838081F6
:1006A00081608083E0E8F0E0808181608083E1EB1D
:1006B000F0E0808184608083E0EBF0E08081816005
:1006C0008083EAE7F0E080818460808380818260BB
:1006D00080838081816080838081806880831092A4
:1006E000C10008958F7090911C019295990F990FF8
:1006F000907C982B90937C0080917A00806480930A
:100700007A0080917A0086FDFCCF2091780040919C
:100710007900942F80E030E0282B392BC90108950F
:10072000282F30E0C90186569F4FFC0194912A572B
:100730003F4FF9018491882391F0E82FF0E0EE0F0C
:10074000FF1FE859FF4FA591B491662329F48C91BE
:10075000909589238C9308958C91892B8C9308957F
:10076000482F50E0CA0182559F4FFC012491CA01D5
:1007700086569F4FFC0194914A575F4FFA0134917E
:100780003323D1F1222331F1233021F480918000F1
:100790008F7705C0243031F4809180008F7D809365
:1007A000800018C0213019F484B58F7704C022303E
:1007B00021F484B58F7D84BD0DC0263021F4809155
:1007C000B0008F7705C0273029F48091B0008F7D6D
:1007D0008093B000E32FF0E0EE0FFF1FEE58FF4FC5
:1007E000A591B491662329F48C91909589238C93DB
:1007F00008958C91892B8C9308951F920F920FB6B8
:100800000F9211242F933F934F935F936F937F9396
:100810008F939F93AF93BF93EF93FF934091C60045
:10082000E091A002F091A102CF01019660E870E092
:100830000E94F1069C018091A2029091A3022817C8
:10084000390739F0E05EFD4F40833093A1022093D9
:10085000A002FF91EF91BF91AF919F918F917F91F6
:100860006F915F914F913F912F910F900FBE0F901D
:100870001F9018955F926F927F928F929F92AF9286
:10088000BF92CF92DF92EF92FF920F931F93CF937D
:10089000DF93EC013A014B01413482E458078FE0C9
:1008A000680780E078070CF07FC060E874E88EE1AC
:1008B00090E0A40193010E9426072150304040405F
:1008C0005040CA01B90122E030E040E050E00E940F
:1008D000260759016A01A60195012095309540959A
:1008E000509594E0220F331F441F551F9A95D1F75E
:1008F00060E074E284EF90E00E942607CA01B9012B
:100900002FEF30E040E050E00E94D206A4019301B6
:100910000E942607C90181509F4F181619061CF422
:10092000522E5A9403C055245394521A60E079E031
:100930008DE390E0A40193010E94260721503040EE
:1009400040405040CA01B90122E030E040E050E0B0
:100950000E942607209530954095509583E0220F00
:10096000331F441F551F8A95D1F760E074E284EF6E
:1009700090E00E942607CA01B9012FEF30E040E065
:1009800050E00E94D206A40193010E942607C901EB
:1009900081509F4F181619061CF4822F815002C0F7
:1009A00081E0821B851500F5E885F98581E090E0FE
:1009B0000A8802C0880F991F0A94E2F7808360E0DA
:1009C00079E08DE390E0A40193010E942607215075
:1009D000304040405040CA01B90122E030E040E0E0
:1009E00050E00E94260704C0E885F9851082950131
:1009F000EC81FD813083EE81FF812083EA85FB85D8
:100A0000208141E050E0CA010E8402C0880F991F86
:100A10000A94E2F7282B2083EA85FB852081CA010E
:100A20000F8402C0880F991F0A94E2F7282B2083B5
:100A3000EA85FB858081088802C0440F551F0A940F
:100A4000E2F7842B8083DF91CF911F910F91FF906C
:100A5000EF90DF90CF90BF90AF909F908F907F905E
:100A60006F905F900895DC011296ED91FC911397C1
:100A7000E058FF4F8191919180589F4F20813181A3
:100A8000821B930B60E870E00E94F1060895CF93FB
:100A9000DF93DC011296ED91FC911397EF01CE5795
:100AA000DF4F48815981E058FF4F80819181E058A4
:100AB000F0408417950719F42FEF3FEF0CC0E40FB7
:100AC000F51F2081CA01019660E870E00E94F106DE
:100AD0009983888330E0C901DF91CF910895FC01AB
:100AE000A085B18521898C9190E0022E02C0959558
:100AF00087950A94E2F780FFF6CF0484F585E02D10
:100B0000608308958BE291E09093A5028093A40204
:100B100080E292E09093A7028093A60285EC90E099
:100B20009093A9028093A80284EC90E09093AB028A
:100B30008093AA0280EC90E09093AD028093AC0287
:100B400081EC90E09093AF028093AE0286EC90E04F
:100B50009093B1028093B00284E08093B20283E06C
:100B60008093B30287E08093B40285E08093B5025E
:100B700081E08093B60208950F931F93CF93DF9384
:100B80008C01EB0109C02196D801ED91FC910190F7
:100B9000F081E02DC801099568816623A1F7DF91F6
:100BA000CF911F910F910895EF92FF920F931F9392
:100BB000CF93DF938C017B01EA010CC0D7016D91CB
:100BC0007D01D801ED91FC910190F081E02DC801EB
:100BD00009952197209791F7DF91CF911F910F9160
:100BE000FF90EF900895DC01ED91FC910190F08170
:100BF000E02D09950895DC01ED91FC910190F081C3
:100C0000E02D09950895DC01ED91FC910280F381BE
:100C1000E02D099508952F923F924F925F926F9227
:100C20007F928F929F92AF92BF92CF92DF92EF927C
:100C3000FF920F931F93DF93CF93CDB7DEB7A097AB
:100C40000FB6F894DEBF0FBECDBF1C016A017B0159
:100C5000411551056105710549F4DC01ED91FC91E7
:100C60000190F081E02D60E3099554C08824992417
:100C70005401422E55246624772401E010E00C0F25
:100C80001D1F080D191DC701B601A30192010E9485
:100C90000407F80160830894811C911CA11CB11CFD
:100CA000C701B601A30192010E940407C901DA013C
:100CB0006C017D01C114D104E104F104F1F681E07D
:100CC000E82EF12CEC0EFD1EE80CF91C3E010894F8
:100CD000611C711CD501C4010197A109B1096C0106
:100CE000C818D90814C0F601EE0DFF1D60816A30E6
:100CF00010F4605D01C0695CD101ED91FC9101903F
:100D0000F081E02DC10109950894E108F1086E1405
:100D10007F0449F7A0960FB6F894DEBF0FBECDBF93
:100D2000CF91DF911F910F91FF90EF90DF90CF90C7
:100D3000BF90AF909F908F907F906F905F904F90FB
:100D40003F902F900895EF92FF920F931F93CF93B0
:100D5000DF93EC017A018B0177FF0FC0E881F98105
:100D60000190F081E02D6DE2099510950095F094C9
:100D7000E094E11CF11C011D111DCE01B801A70179
:100D80002AE00E940B06DF91CF911F910F91FF90F7
:100D9000EF900895AB01662757FD6095762F0E946E
:100DA000A3060895629FD001739FF001829FE00D1A
:100DB000F11D649FE00DF11D929FF00D839FF00DDA
:100DC000749FF00D659FF00D9927729FB00DE11D86
:100DD000F91F639FB00DE11DF91FBD01CF01112463
:100DE000089597FB092E07260AD077FD04D049D035
:100DF00006D000201AF4709561957F4F0895F6F79C
:100E0000909581959F4F0895A1E21A2EAA1BBB1BB6
:100E1000FD010DC0AA1FBB1FEE1FFF1FA217B307C6
:100E2000E407F50720F0A21BB30BE40BF50B661FDC
:100E3000771F881F991F1A9469F7609570958095A0
:100E400090959B01AC01BD01CF01089597FB092E40
:100E500005260ED057FD04D0D7DF0AD0001C38F489
:100E600050954095309521953F4F4F4F5F4F0895D6
:100E7000F6F790958095709561957F4F8F4F9F4FB6
:100E80000895AA1BBB1B51E107C0AA1FBB1FA617D1
:100E9000B70710F0A61BB70B881F991F5A95A9F723
:100EA00080959095BC01CD010895EE0FFF1F059030
:0A0EB000F491E02D0994F894FFCFAF
:100EBA004E6F2066756E632E206174746163686577
:100ECA006420666F723A20000D00121301000000C0
:100EDA0000C600F600CB00000000006F05BC05D478
:020EEA00050001
:040000050080011A5C
:00000001FF
